:100000000C9434000C943E000C943E000C943E0082
:100010000C943E000C943E000C943E000C943E0068
:100020000C943E000C943E000C943E000C943E0058
:100030000C943E000C943E000C943E000C943E0048
:100040000C943E000C943E000C943E000C943E0038
:100050000C943E000C943E000C943E000C943E0028
:100060000C943E000C943E0011241FBECFEFD8E04C
:10007000DEBFCDBF0E9440000C9457000C940000DE
:10008000259A40E220E931E045B980E197E2E22F8C
:10009000F32F3197F1F70197D1F715B880E197E287
:1000A000E22FF32F3197F1F70197D1F7EDCFF894C5
:0200B000FFCF80
:00000001FF
